:020000040800F2
:1000000000000320950B0008AD240008AF24000871
:10001000B1240008B3240008B52400080000000043
:100020000000000000000000000000002164000843
:10003000B724000800000000B1640008156500083E
:10004000E50B0008E50B0008E50B0008E50B0008D0
:10005000E50B0008E50B0008E50B0008E50B0008C0
:10006000B9240008E50B0008E50B0008E50B0008C3
:10007000E50B0008E50B0008E50B0008E50B0008A0
:10008000E50B0008E50B0008E50B0008E50B000890
:10009000E50B0008E50B0008E50B0008E50B000880
:1000A000E50B0008E50B0008E50B0008C924000873
:1000B000E50B0008E50B0008E50B0008E50B000860
:1000C000E50B0008E50B0008E50B0008E50B000850
:1000D000E50B0008E50B0008E50B0008E50B000840
:1000E000E50B0008E50B0008E50B0008E50B000830
:1000F000E50B0008E50B0008E50B0008E50B000820
:10010000E50B0008E50B0008E50B0008E50B00080F
:10011000E50B0008E50B0008D5240008E50B0008F6
:10012000E50B0008E50B0008E50B0008E50B0008EF
:10013000E50B0008E50B0008E50B0008E50B0008DF
:10014000E50B0008E50B0008E50B0008E50B0008CF
:10015000E50B0008E50B0008E50B0008E50B0008BF
:10016000E50B0008E50B0008E50B0008E50B0008AF
:10017000E50B0008E50B0008E50B00080000000097
:10018000E50B0008E50B0008E50B0008E50B00088F
:10019000E50B0008E50B0008E50B0008E50B00087F
:0C01A000E1240008E50B0008ED24000835
:1001B00010B5054C237833B9044B13B10448AFF3A1
:1001C00000800123237010BD6401002000000000A6
:1001D00060B0010808B5034B1BB103490348AFF3F6
:1001E000008008BD000000006801002060B0010828
:1001F00001F0FF01102A2BDB10F0070F08D010F8D8
:10020000013B013A8B422DD010F0070F42B3F6D1DB
:10021000F0B441EA012141EA014122F007047FF0F4
:1002200000070023F0E80256083C85EA010586EA4B
:10023000010685FA47F5A3FA87F586FA47F6A5FA87
:1002400087F68EB9EED1F0BC01F0FF0102F0070293
:1002500032B110F8013B013A83EA010313B1F8D13E
:100260000020704701387047002D06BF354603381F
:10027000073815F0010F07D1013015F4807F02BF58
:10028000013015F4C03F0130F0BC0138704700BFA9
:1002900070B54FF0FF0C4CF4E06C1CEA11541DBF1C
:1002A0001CEA135594EA0C0F95EA0C0F00F0DEF8E7
:1002B0002C4481EA030621EA4C5123EA4C5350EACC
:1002C000013518BF52EA033541F4801143F480131D
:1002D00038D0A0FB02CE4FF00005E1FB02E506F0AE
:1002E0000042E0FB03E54FF00006E1FB03569CF003
:1002F000000F18BF4EF0010EA4F1FF04B6F5007F09
:1003000064F5407404D25FEA4E0E6D4146EB06067A
:1003100042EAC62141EA55514FEAC52040EA5E5003
:100320004FEACE2EB4F1FD0C88BFBCF5E06F1ED8AD
:10033000BEF1004F08BF5FEA500E50F1000041EBE4
:10034000045170BD06F0004646EA010140EA020091
:1003500081EA0301B4EB5C04C2BFD4EB0C0541EAB3
:10036000045170BD41F480114FF0000E013C00F3C8
:10037000AB8014F1360FDEBF002001F0004170BDEC
:10038000C4F10004203C35DA0C341BDC04F1140405
:10039000C4F1200500FA05F320FA04F001FA05F291
:1003A00040EA020001F0004221F0004110EBD3705E
:1003B00021FA04F642EB06015EEA430E08BF20EA8A
:1003C000D37070BDC4F10C04C4F1200500FA04F32D
:1003D00020FA05F001FA04F240EA020001F00041BF
:1003E00010EBD37041F100015EEA430E08BF20EA32
:1003F000D37070BDC4F1200500FA05F24EEA020E7A
:1004000020FA04F301FA05F243EA020321FA04F0A8
:1004100001F0004121FA04F220EA020000EBD3705F
:100420005EEA430E08BF20EAD37070BD94F0000F5F
:100430000FD101F00046400041EB010111F4801F93
:1004400008BF013CF7D041EA060195F0000F18BF44
:10045000704703F00046520043EB030313F4801F80
:1004600008BF013DF7D043EA0603704794EA0C0F3A
:100470000CEA135518BF95EA0C0F0CD050EA410650
:1004800018BF52EA4306D1D181EA030101F00041CD
:100490004FF0000070BD50EA410606BF10461946F5
:1004A00052EA430619D094EA0C0F02D150EA013601
:1004B00013D195EA0C0F05D152EA03361CBF104642
:1004C00019460AD181EA030101F0004141F0FE41E1
:1004D00041F470014FF0000070BD41F0FE4141F465
:1004E000780170BD81F0004102E000BF83F000435D
:1004F00030B54FEA41044FEA430594EA050F08BFBF
:1005000090EA020F1FBF54EA000C55EA020C7FEA82
:10051000645C7FEA655C00F0E2804FEA5454D4EBFF
:100520005555B8BF6D420CDD2C4480EA020281EAC9
:10053000030382EA000083EA010180EA020281EA01
:100540000303362D88BF30BD11F0004F4FEA013153
:100550004FF4801C4CEA113102D0404261EB410162
:1005600013F0004F4FEA03334CEA133302D05242E8
:1005700063EB430394EA050F00F0A780A4F10104A4
:10058000D5F1200E0DDB02FA0EFC22FA05F28018DE
:1005900041F1000103FA0EF2801843FA05F35941C4
:1005A0000EE0A5F120050EF1200E012A03FA0EFC43
:1005B00028BF4CF0020C43FA05F3C01851EBE3716D
:1005C00001F0004507D54FF0000EDCF1000C7EEB8A
:1005D00000006EEB0101B1F5801F1BD3B1F5001FC8
:1005E0000CD349085FEA30004FEA3C0C04F10104E7
:1005F0004FEA445212F5800F80F09A80BCF1004F10
:1006000008BF5FEA500C50F1000041EB045141EA91
:10061000050130BD5FEA4C0C404141EB0101013C5A
:1006200028BFB1F5801FE9D291F0000F04BF014649
:100630000020B1FA81F308BF2033A3F10B03B3F11B
:1006400020020CDA0C3208DD02F1140CC2F10C02AB
:1006500001FA0CF021FA02F10CE002F11402D8BF09
:10066000C2F1200C01FA02F120FA0CFCDCBF41EAD5
:100670000C019040E41AA2BF01EB0451294330BDA4
:100680006FEA04041F3C1CDA0C340EDC04F1140481
:10069000C4F1200220FA04F001FA02F340EA030058
:1006A00021FA04F345EA030130BDC4F10C04C4F19E
:1006B000200220FA02F001FA04F340EA030029467E
:1006C00030BD21FA04F0294630BD94F0000F83F4C8
:1006D000801306BF81F480110134013D4EE77FEAAB
:1006E000645C18BF7FEA655C29D094EA050F08BFF7
:1006F00090EA020F05D054EA000C04BF19461046D8
:1007000030BD91EA030F1EBF0021002030BD5FEA1B
:10071000545C05D14000494128BF41F0004130BD43
:1007200014F580043CBF01F5801130BD01F0004597
:1007300045F0FE4141F470014FF0000030BD7FEA0A
:10074000645C1ABF194610467FEA655C1CBF0B4605
:10075000024650EA013406BF52EA033591EA030F1C
:1007600041F4002130BD00BF90F0000F04BF002114
:10077000704730B54FF4806404F132044FF0000547
:100780004FF0000150E700BF90F0000F04BF0021C0
:10079000704730B54FF4806404F1320410F0004526
:1007A00048BF40424FF000013EE700BF42004FEA21
:1007B000E2014FEA31014FEA02701FBF12F07F439E
:1007C00093F07F4F81F06051704732F07F4208BF55
:1007D000704793F07F4F04BF41F40021704730B55C
:1007E0004FF4607401F0004521F000411CE700BFA8
:1007F00050EA010208BF704730B54FF000050AE02B
:1008000050EA010208BF704730B511F0004502D52B
:10081000404261EB41014FF4806404F132045FEA2D
:10082000915C3FF4D8AE4FF003025FEADC0C18BFD6
:1008300003325FEADC0C18BF033202EBDC02C2F1C8
:10084000200300FA03FC20FA02F001FA03FE40EA5A
:100850000E0021FA02F11444BDE600BF4A0011D295
:1008600012F5001211D20DD56FF47873B3EB62520A
:100870000ED44FEAC12343F0004343EA505323FA16
:1008800002F070474FF00000704750EA013002D18B
:100890004FF0FF3070474FF00000704753B94AB92E
:1008A000002908BF00281CBF4FF0FF314FF0FF3078
:1008B00000F06EB9ADF1080C6DE904CE00F006F859
:1008C000DDF804E0DDE9022304B070472DE9F047CC
:1008D000089D04468C46002B40F083808A421746D0
:1008E00047D9B2FA82F242B1C2F1200024FA00F0F4
:1008F0009140974040EA010C94404FEA1748230C7E
:10090000BCFBF8F61FFA87FE08FB16C143EA014359
:1009100006FB0EF1994209D9FB1806F1FF3080F071
:100920001981994240F21681023E3B445B1AA4B2FF
:10093000B3FBF8F008FB103344EA034400FB0EFE5F
:10094000A64509D93C1900F1FF3380F00581A64581
:1009500040F2028102383C4440EA0640A4EB0E0417
:1009600000261DB1D4400023C5E900433146BDE84F
:10097000F08702B9FFDEB2FA82F2002A50D1CB1B17
:100980004FEA174E1FFA87F80126B3FBFEFC210C35
:100990000EFB1C3341EA034108FB0CF38B4207D9E1
:1009A00079180CF1FF3002D28B4200F2E9808446C4
:1009B000C91AA3B2B1FBFEF00EFB101143EA0144C9
:1009C00008FB00F8A04507D93C1900F1FF3302D21B
:1009D000A04500F2D9801846A4EB080440EA0C4078
:1009E000BFE78B4209D9002D00F0B1800026C5E990
:1009F000000130463146BDE8F087B3FA83F6002E99
:100A00004AD18B4202D3824200F2B880841A61EB51
:100A1000030101208C46002DA8D0C5E9004CA5E7B4
:100A2000C2F1200320FA03F6974001FA02F04FEAE0
:100A3000174ED9403043030CB1FBFEF61FFA87F87E
:100A40000EFB161143EA014306FB08F1994204FA32
:100A500002F409D9FB1806F1FF3C80F08D80994221
:100A600040F28A80023E3B445B1A81B2B3FBFEF047
:100A70000EFB103341EA034100FB08F38B4207D918
:100A8000791800F1FF3C73D28B4271D90238394496
:100A9000CB1A40EA064678E7C6F1200C03FA06F4C2
:100AA00022FA0CF31C4320FA0CF701FA06F34FEA82
:100AB000144E21FA0CF11F433B0CB1FBFEF91FFA57
:100AC00084F80EFB191143EA014109FB08FA8A4533
:100AD00002FA06F200FA06F308D9611809F1FF30AC
:100AE00048D28A4546D9A9F102092144A1EB0A015D
:100AF000BFB2B1FBFEF00EFB101147EA014700FB4D
:100B000008F8B84507D9E71900F1FF312ED2B845EA
:100B10002CD90238274440EA0940A7EB0807A0FB7C
:100B200002894F45C64649461AD317D05DB1B3EB8B
:100B30000E0267EB010707FA0CFCF2404CEA0202D6
:100B4000F740C5E9002700263146BDE8F0872E466C
:100B500028460BE70646E9E61846FDE64345E5D29A
:100B6000B8EB020E69EB04010138DFE70846D2E773
:100B700060468DE78146B9E7664675E730464AE745
:100B8000ACF1020C394413E702383C4424E700BFBF
:100B9000704700BFDFF834D0002103E00C4B5B58F6
:100BA000435004310B480C4B42189A42F6D30B4A7F
:100BB00002E0002342F8043B094B9A42F9D302F0C9
:100BC0006DFD19F01DFA00F0E7FE704700000320EC
:100BD000EC290308000000206401002064010020CB
:100BE000C0240120FEE700F019BC00F087BC70476C
:100BF00010B50421044619F08BF9204610BD000001
:100C000038B50C4B0C4C18800C4B82201980636853
:100C1000984740F6110398420AD1094D23682C6089
:100C2000822098472B688220DB689847002038BDD7
:100C30000120FCE7800100204C0000208201002000
:100C4000840100204FF4A071F020FFF7D9BF00000D
:100C5000F7B52D4D2B6804461B698220984780B25A
:100C60002080002843D02B680DF106025B6901A9A2
:100C700082209847BDF80620A2F5B47292B20A2AE3
:100C800037D90B23B2FBF3F2204B1B889A4201D9D0
:100C90005A1E92B2BDF8043040F6B8318B422AD8C1
:100CA000C3F571630E339BB20F21B3FBF1F3184907
:100CB00009888B4201D94B1E9BB2164E164D3068E7
:100CC0002F68834281B28CBF591AC91AB8B2BA428E
:100CD0008CBF101A801A89B280B201440529C8BF9E
:100CE00033603368C8BF2A6063802B68A38003B079
:100CF000F0BD0022CEE7C3F56D6308339BB20E2B27
:100D0000D2D80023D9E700BF84010020820100204F
:100D100080010020880100208C01002037B5684642
:100D20000D461446FFF794FFBDF8000030B1BDF842
:100D300002302B60BDF804302360012003B030BDC9
:100D4000704770477047012380F8741080F8753041
:100D500070470020704700207047836B0BB1084636
:100D6000184770474FF6FF707047406803689B69EB
:100D7000184770477047704708B5036804469B6E74
:100D80009847236820461B6E984700F0D9F82368DF
:100D900020469B6D9847292001F092F800F0D0F88A
:100DA000236820469B6D9847F8E710B5044608F085
:100DB000CBF823682046D3F89030BDE810401847A0
:100DC00000F030BC00F034BC00F03ABC00F006BCCF
:100DD00000F03ABC00F042BC00F00ABC08B531B9E2
:100DE0000A4B0B4A0B4840F26B2119F0BFF8C0E9DF
:100DF0000F12003A0849436418BF01220A70003BF1
:100E0000064A18BF0123137008BD00BFD8B00108FF
:100E100010B101085EB10108761F0120771F012083
:100E200007F000BB10B57C21044619F071F820468C
:100E300010BD90F877301BB1406803681B681847F5
:100E40001846704730B590F8341090F87440104B45
:100E50008C421A780DD05AB90E4A0F490F4814889F
:100E60000F4D0C80018811802980048001221A70A6
:100E700030BD002AFCD00948074A01881180054A84
:100E8000074D14882C80118004800022EFE700BFFA
:100E9000701F01206C1F0120721F01206E1F012096
:100EA000741F012000F0EEBB012108B500220846A6
:100EB00004F08CFF0A4B186028B90A4B0A4A252116
:100EC0000A4819F053F800220421012005F044F8E3
:100ED000074B186018B9074B034A2921F0E708BDF2
:100EE0009401002060B20108A9B20108D8B201083B
:100EF0009001002020B30108024B4FF0FF31186829
:100F000004F0BABF94010020014B186804F0EEBF52
:100F100094010020024B0021186804F0ADBF00BF0F
:100F200094010020FFF7F0BF034804490068002344
:100F30001A4605F057B800BF9001002004000020B9
:100F400013B5084C00231A4601A9206805F08CF857
:100F500020684FF0FF33002201A905F085F802B0A8
:100F600010BD00BF9001002003685B6C1847012092
:100F7000704703689B6A184782B0002301930D4BAA
:100F80001A6B42F400021A631A6B02F40002019217
:100F9000019A1A6942F400021A611A6922F40002E5
:100FA0001A61054B054A1A61054B4FF080629A6041
:100FB00002B0704700380240B8230120CD0F00086E
:100FC00000E100E040F2EF1070470000024B1B68A8
:100FD000586803685B691847781F012008B50B281B
:100FE0000BD8DFE800F01206100A0A0A0A080808FF
:100FF0000808012008BD0520FCE7054B054A064806
:10100000652118F0B3FF0020F4E70220F2E700BFEB
:1010100062B301087DB30108C9B3010808B50A2805
:1010200009D8DFE800F010060E08080808060606D2
:101030000600012008BD054B054A0648862118F028
:1010400095FF0020F6E70220F4E700BF62B3010835
:101050000FB40108C9B301082DE9F0414F7F0C46D8
:101060003846FFF7BBFF94F81E8005464046FFF761
:10107000B5FF06464046FFF7D1FF218AE28A544B6E
:10108000521A1A649A61A28A521A1A61628A5863C1
:1010900042EA01425A64E0686268D863DA60D4F8D0
:1010A00000C0227FBCF1800F4FEA02629E4632D020
:1010B00029D8BCF1200F45EA020175D0BCF1400FE0
:1010C00072D0BCF1040F3CD0414B2A4342F40032B1
:1010D0000B2FDA6179D1A268111DD962D9695288C2
:1010E000501E21F47F4222F0100242EA002242F018
:1010F0001002DA61DA6942F02002DA61DA699206F6
:101100005FD500BFFAE7BCF5807FDDD142F4003245
:1011100042F0090203E042F4003242F00A02DA61CE
:10112000A1690A024C0102F4780204F47C44C9006B
:101130002243C9B20A431A625E625861254A1A60A4
:101140003DE041F400310B2FD9615E62586129D135
:10115000A16821480A1DDA620A783AB1012A16D03C
:101160001E4B1F4A1F48FC2118F000FFDA6949880E
:101170000240013942EA0122DA61154BDA6942F094
:101180002002DA61DA6991060AD500BFFAE7DA6966
:1011900049880240013942EA012242F01002EBE79D
:1011A00010229A600A4BC9E70A4B41F40031CEF88D
:1011B0001C10CEF82460CEF81400CEF80030BDE844
:1011C000F08110229A60084AB9E740F20122B6E79E
:1011D00000B0024001020200EF00FFFF5CB4010812
:1011E00076B40108C9B3010801020100F8B58E7F89
:1011F0000C463046FFF712FF278A618AE28A1E4BAF
:10120000E568586341EA0741D21B5964DD631A64FB
:101210002168082918D19A611A615862217F174AFA
:1012200042EA0162DA61A1690A02480102F4780225
:1012300000F47C40C900C9B202430A431A62104A52
:101240005D61DD601A60F8BD0022D8611A61A16994
:101250001EB99963084B0B4AF4E70A02480102F4ED
:10126000780200F47C40C900C9B202430A43217FDE
:1012700042EA01629A63EDE700B002400900010012
:101280000102020001020300054B0360054B4FF011
:101290008062C3F88820BFF34F8FBFF36F8F704712
:1012A000C0B4010800E100E010B50446FFF7ECFF10
:1012B00020464FF4426118F02BFE204610BD00007E
:1012C00070B5044625460A4B0C3000266060267235
:1012D000667245F8203B6022294607F065FF04F559
:1012E0004263AE612035AB42FBD1204670BD00BFEA
:1012F000C0B40108012070470C2070470C2303FB89
:101300000100083070470C2303FB010008307047D0
:10131000012070474FF4A27070474FF4A27303FB93
:101320000100083070474FF4A27303FB010008303E
:101330007047012070471020704700EB0110083003
:10134000704700EB011008307047084601F0FEB905
:1013500010B5034B0360044606F078FE204610BD2E
:1013600078B5010810B50446FFF7F2FF20461421B6
:1013700018F0CEFD204610BD10B5034B03600446A7
:1013800006F064FE204610BD44B5010810B50446C1
:10139000FFF7F2FF20464FF4A67118F0B9FD204682
:1013A00010BD000010B5034B0360044606F04EFE6E
:1013B000204610BD10B5010810B50446FFF7F2FF36
:1013C0002046182118F0A4FD204610BD10B5084B8A
:1013D0000360044600F5BC70FFF7BAFF04F12C006F
:1013E000FFF7CAFF04F11400FFF7DCFF204610BD31
:1013F000ACB5010808B50248FFF7E8FF08BD00BF1B
:101400009C01002010B50446FFF7E0FF20464FF492
:101410003A7118F07DFD204610BD00002DE9F34122
:1014200001F0D6F8054601F0D7F80024014623461E
:101430002846224600940CF047FF254B254A264DAE
:101440001A60204601F090FD24480CF07FFE2B78B6
:10145000BFF35B8FDB0735D4284618F05BFD88B3FC
:101460001F4C204B236004F5C87604F1140004F1EE
:101470002C0804F5BC776060C4F80880E76026613A
:1014800006F0E6FD184B6361404606F0E1FD174BA0
:10149000E362384606F0DCFD154BC4F8783104F5FC
:1014A000C67001F0DDFD224604F5C671304601F03C
:1014B000CDFD304601F04AF9284618F037FD0D48B9
:1014C00018F072FD0C4802B0BDE8F041FFF7EABC2D
:1014D000D41F0120241100209801002008000020C2
:1014E0009C010020ACB5010810B5010844B5010805
:1014F00078B50108F5130008A81000200148FFF78F
:101500003BBC00BFA810002070B5244C244E254BD6
:10151000254D23603046FFF7D3FE28460FF060FFCD
:10152000224B2348DC600022C3E9190221481A85B6
:101530000360214883F82A20C3E90165F0241F4D88
:1015400004804FF4A0704FF4807128801C4DA3F8E4
:101550004810A3F876100121C3E90422C3E906224A
:10156000C3E90822C3E90E22C3E91022C3E913220A
:10157000DA621A8683F84A205A6583F86C201A6763
:1015800083F8752083F878102A700E4A83F8341097
:1015900014800D4A10800D4A1A6070BD840400202A
:1015A00088040020C8B0010828110020A8100020DD
:1015B00001000001781F01206C1F01206E1F012017
:1015C000701F0120721F0120741F0120ACB101089F
:1015D0000148FFF759BE00BF88040020034B90224A
:1015E00083F85A2383F85823704700BF00E100E0D6
:1015F000094A0A49D3680A48C3F30A03013B9BB26C
:101600000B801169C1F30A01013901801364536B26
:1016100043F001035363704700680140A2110020AA
:10162000A0110020014B986A704700BF84680140F8
:10163000024B0122996243F8602C70478468014094
:1016400006F0F6BE07F01BB8034B4FF080629A60BD
:101650004FF080729A60704700E100E0084B4FF055
:101660008062C3F88820BFF34F8FBFF36F8F4FF0B6
:101670008072C3F88820BFF34F8FBFF36F8F70471E
:1016800000E100E070B5044607F0D6F92368DD6C90
:1016900009F01CFE01462046A8472368044A1D6F36
:1016A0002046AC460023BDE87040A2F516316047E5
:1016B000005802D0134B144A1B6C11888B4210B592
:1016C000124C13D1124B198803F068F8226892F873
:1016D0006630013382F86630FFF726FC206807F099
:1016E00033FCBDE810400020FFF72ABB03F056F89A
:1016F0000020FFF726FB20680368BDE810409B69C7
:10170000184700BF00680140A2110020781F012087
:10171000A011002007B5064BADF806001B68054870
:1017200001220DF1060103F038FD03B05DF804FB62
:101730001000002068220120034B1B6800225A621F
:101740005A6A8242FCD370477423012000000000D3
:1017500070B5037F022B044613D1274E33783546EC
:1017600083B9042103F054FF244B18600123337024
:1017700023681A6A22F0A0021A621A6A42F0200252
:101780001A6270BD012BFCD1042103F041FF1C4BF8
:101790002468186000236362184B1A4A1B68984239
:1017A00020D9C31A13601068FEF7DEFF10A3D3E937
:1017B0000023FEF76DFD144B0022FEF769FDFFF7D5
:1017C0004DF8124B188000232B70236A23F0A003DE
:1017D0002362236A23620E4B1A68D36823F0020344
:1017E000D360CEE7DFD2C3F57F43FF330344D9E7AD
:1017F000006F8104C58FA13FB4110020AC110020FF
:10180000B0110020A41100200000E03FA81100202A
:101810007423012010B50B4C01224FF48061204647
:1018200002F0D2F90A20FFF787FF00224FF480610F
:10183000204602F0C9F9044B1A68D36843F002034A
:10184000D36010BD000002407423012010B5104C7D
:1018500001222021204602F0B7F9C82001F058FFEC
:1018600000222021204602F0AFF9C82001F050FFED
:1018700001222021204602F0A7F9C82001F048FFEC
:1018800020460022BDE81040202102F09DB900BF93
:10189000000C024010B50B4C22881D2A10D846F2CD
:1018A000A810FFF749FFFFF7B5FF23881E2BF6D9D5
:1018B000054A1388BDE8104001331380FFF7C6BF07
:1018C00010BD00BFA8110020BC11002008B5FFF713
:1018D000E1FF642001F01CFF012004F05DFAF6E74F
:1018E000F0B5A1B0102200210AA818F0CBFB1422F9
:1018F000002103A818F0C6FB0021302214A818F01C
:10190000C1FB0024224B01941A6C42F080521A64ED
:101910001B6C03F080530193019B1E4B02941A68C9
:1019200042F440421A601B6803F4404302930122D0
:10193000029B4FF48033CDE9082302254FF4800346
:10194000CDE90E5308274FF4A873042608A8CDE963
:1019500010731295139602F03FFF0F23CDE9033564
:101960004FF4A0514FF48053CDE9061303A805218D
:10197000059403F007F9C023189314A84FF400331B
:1019800014971A961D9303F0C7F921B0F0BD00BF5C
:1019900000380240007000402DE980489BB001F003
:1019A0008BFEFFF79DFF142200210DA8002418F0E4
:1019B00069FBC84B00941A6BC748DFF86493DFF8E3
:1019C00064B342F020021A631A6B02F02002009204
:1019D000009A01941A6B42F080021A631A6B02F0AB
:1019E00080020192019A02941A6B42F004021A6377
:1019F0001A6B02F004020292029A03941A6B42F0EC
:101A000001021A631A6B02F001020392039A049412
:101A10001A6B42F002021A631A6B02F0020204927D
:101A2000049A05941A6B42F040021A631A6B02F092
:101A300040020592059A06941A6B42F010021A634E
:101A40001A6B02F010020692069A07941A6B42F083
:101A500008021A631B6B03F0080307932246042154
:101A6000079B02F0B1F89D48224643F2200102F0A4
:101A7000ABF89B482246082102F0A6F82246994876
:101A80004FF4806102F0A0F8012602274FF004080D
:101A900091480F940DA9CDE90D86109701F0AAFF8A
:101AA0004FF440538D480DA9CDE90D36CDE90F47D0
:101AB00001F0A0FF8C4B8A48CDF834800DA9082591
:101AC000CDE90E3401F096FF85480DA9CDE90D56FC
:101AD000CDE90F4401F08EFF4FF4806381480DA9DA
:101AE000CDE90D36CDE90F4401F084FF20237B487A
:101AF0000DA9CDE90D36CDE90F4401F07BFF05219D
:101B00002246284601F02AFE284601F059FE774871
:101B1000774B036001F062FE764A774BC9F82040AC
:101B2000C9E9002348464FF48043C9E90434C9E9B0
:101B30000244C9E9064402F035FA1021484602F091
:101B400071FC2146484602F08CFC6C486C4984626A
:101B50004FF482734FF4007CC0E900131823C0E9EE
:101B600006C30A23C362C0E90244C0E90444C0E9D1
:101B7000084403F0D5FA634A0D97CBE900264FF0ED
:101B8000100A4022CBE904A24FF4C072CBE906242C
:101B90004FF40062CBE908244FF400524FF00309E0
:101BA000CBF828200DA907225846CBE90248CDE9F9
:101BB0000E28CDE911971092139703F0D7F94FF63D
:101BC000FF7209A95846CDE90965CDE90B6408946F
:101BD00003F0ECF9304601F09BFD4FF6FF7209A9C6
:101BE0005846CDE90975CDE90B6403F0DFF94FF6EE
:101BF000FF7209A95846CDE90995CDE90B8403F098
:101C0000D5F94FF40C720892089A0C9209A94FF674
:101C1000FF725846CDE909850B9603F0C7F940F2EB
:101C20006A51584603F0D9F9342221460DEB0200DF
:101C300018F028FA344D354BAC86C5E90034092339
:101C4000C5E905361D2340F20D1EC5E9073940F2EE
:101C50004313C5E909E3284640F2471340F2171938
:101C6000C5E90B93C5E902442C6185F8364002F0C2
:101C70009DFCFF21F022CDE912144FF4806B052169
:101C80004FF4A073CDE90E24CDE914B1CDE916428D
:101C90000DA922462846CDE910371D4D18930D9405
:101CA000ADF864408DF8664002F04BFD194B2B6097
:101CB0001B6898472B68184DDB689847174BC5E998
:101CC0000A47C5E90C442846C5E90034C5E9027451
:101CD0002AE000BF0038024000080240000C024029
:101CE000001802400000024000001110C022012034
:101CF00000300240005C0040A08601006822012004
:101D000000500140400100A0C822012000680140AD
:101D1000B811002014000020B823012000B00240B8
:101D200014220120F823012001F068FD31462846E5
:101D300001F01CFE214652460DA81D4DCDE9094477
:101D400018F0A0F91B4AAC60A723C5E90023284678
:101D50004FF6FF73C5E90334C5E9054403F094FD6C
:101D600009A92846CDE9094403F0A6FE42460DA97B
:101D70002846CDE90D46CDE90F4403F0D9FDFEF725
:101D800032FF4146284603F06BFE03F075FF0A4A16
:101D90000A48214603F0AAFF094B0A4A1860214667
:101DA000094803F0A3FF094B186003F07FFFFEE72B
:101DB0007423012000000140CCB50108EB0B0008A2
:101DC000B4230120F0B50108CD18000870230120CC
:101DD000704770477FB5094B8DF817201B68029339
:101DE0000DF117020123009201930A4601460448AF
:101DF00002F080F907B05DF804FB00BF0C00002082
:101E0000142201207FB500238DF81730084B1B6882
:101E100002930A4601230DF1170100910193014637
:101E2000044802F0F7F99DF8170007B05DF804FBCD
:101E30000C000020142201201FB5084C24680092D9
:101E4000CDE901340A4601230146054802F0E2F9D2
:101E5000003818BF012004B010BD00BF0C000020E6
:101E60001422012001F054BC08B5064800220421C8
:101E700001F0AAFEBDE8084002480122042101F059
:101E8000A3BE00BF0008024038B50B4D0446012236
:101E90000A484FF4005101F097FE00220421284621
:101EA00001F092FE2046FFF735FC28460122BDE8EE
:101EB0003840042101F088BE00080240000C0240B6
:101EC00038B50B4D044600220A484FF4005101F08A
:101ED0007BFE00220421284601F076FE2046FFF713
:101EE00019FC28460122BDE83840042101F06CBEEF
:101EF00000080240000C0240F7B5144E144F05468E
:101F00000C4630460022042101F05EFE00224FF410
:101F10000051384601F058FE2846FFF7FBFB0D4BF9
:101F20000D481B68224601A903F0CAFA384601226F
:101F30004FF40051019C01F047FE3046012204217C
:101F400001F042FE204603B0F0BD00BF0008024091
:101F5000000C0240100000206822012001F0D8BBD4
:101F60000268034B9A4201D101F0C0BB704700BF29
:101F70000010004082B00E4B00220092596C41F4D8
:101F800080415964596C01F480410091009901929B
:101F9000196C41F0805119641B6C03F0805301935C
:101FA000019B0F216FF0010002B001F0D7BB00BF11
:101FB000003802400268094B9A4282B00BD10023DC
:101FC0000193074B1A6B42F480521A631B6B03F4A4
:101FD00080530193019B02B0704700BF0030024064
:101FE0000038024007B50F4B02689A4216D1002212
:101FF000A3F5F0430192196B41F4000119631B6BC7
:1020000003F40003019305215A20019B01F0A6FB74
:102010005A2003B05DF804EB01F0D2BB03B05DF8C9
:1020200004FB00BF00B002402DE9F043044689B034
:102030001422002103A818F025F82268244B9A42A4
:1020400043D1244C244800250095236B43F004031E
:102050002363236B03F004030093009B0195236B20
:1020600043F001032363236B03F001030193019BFE
:102070004FF012094FF400734FF0010803270426B4
:1020800003A9CDE90339CDE90587079601F0B2FC34
:102090004FF480731148079603A9CDE90339CDE9C0
:1020A000058701F0A7FC0295236C43F40003236429
:1020B000236C03F400030293029B236A43F400039E
:1020C0002362236A23F40003236209B0BDE8F0838E
:1020D000005C00400038024000080240000002405E
:1020E000F0B504468DB01422002107A817F0CAFFEE
:1020F0002268574B9A4240F0A98003F550430024D0
:1021000000945A6C534842F080625A645A6C02F050
:1021100080620092009A01941A6B42F020021A63C6
:102120001A6B02F020020192019A02941A6B42F09B
:1021300001021A631A6B02F001020292029A0394DE
:102140001A6B42F002021A631A6B02F00202039247
:10215000039A04941A6B42F040021A631A6B02F05D
:1021600040020492049A05941A6B42F004021A6326
:102170001A6B02F004020592059A06941A6B42F05B
:1021800008021A631B6B03F00803069302250E2650
:10219000069B0B964FF4806307A9CDE90735CDE97F
:1021A000094501F027FC41F658032B480B9607A977
:1021B000CDE907350927CDE9094501F01BFC0323CB
:1021C00026480B9707A9CDE90735CDE9094501F068
:1021D00011FC4FF4706321480B9607A9CDE9073530
:1021E000CDE9094501F006FC4FF40C631C480B9641
:1021F00007A9CDE90735CDE9094501F0FBFBC0236F
:1022000018480B9607A9CDE90735CDE9094501F036
:10221000F1FB082314480B9607A9CDE90735CDE952
:10222000094501F0E7FB4FF4A0530D480B9707A9B0
:10223000CDE90735CDE9094501F0DCFB5820224600
:10224000052101F08BFA582001F0BAFA0DB0F0BD6B
:1022500000680140001402400000024000040240F7
:102260000018024000080240000C024010B504466D
:1022700088B01422002103A817F004FF2268154B30
:102280009A4224D103F5684300220192596C41F42B
:1022900080115964596C01F48011019101990292E5
:1022A000196B41F0200119631B6B059203F02003A9
:1022B00002934FF46071029B0223CDE903130320C4
:1022C0000523CDE9060303A9034801F093FB08B0F9
:1022D00010BD00BF005001400014024010B504467C
:1022E00088B01422002103A817F0CCFE2268184BF6
:1022F0009A422BD103F59C33002401945A6C154863
:1023000042F001025A645A6C02F001020192019AF1
:1023100002941A6B42F001021A631B6B03F0010373
:1023200002934FF40072029B0223CDE9032303A919
:1023300001230793CDE9054401F05CFB1B202246F5
:10234000052101F00BFA1B2001F03AFA08B010BD8C
:1023500000000140000002402DE9F0412C4B1C68B8
:1023600086B0002C50D14FF00108C3F80080294BF3
:1023700000949A6B284842EA08029A639B6B039484
:1023800003EA08030093022703260C25009B01A9FA
:102390004FF63F03CDE90137CDE9046501F02AFB93
:1023A0001E48059501A9CDE90187CDE9034601F055
:1023B00021FB48F233131A48059501A9CDE90137ED
:1023C000CDE9034601F016FB4FF6837315480595DA
:1023D00001A9CDE90137CDE9034601F00BFB4CF231
:1023E00003731148059501A9CDE90137CDE90346ED
:1023F00001F000FB60230D48059501A9CDE90137E7
:10240000CDE9034601F0F6FA06B0BDE8F08100BF61
:10241000C0110020003802400014024000080240B1
:102420000018024000100240000C0240000402406C
:1024300030B5014689B00022362001F08FF93620F0
:1024400001F0BEF90025154B02951A6C144C42F0B0
:1024500010021A641B6C03F01003029301A903A875
:10246000029B02F03BFC02F029FC0E4B236040F281
:10247000E733E36040000C4BB0FBF3F001386060E1
:1024800020462561A56003F0E5F920B9204603F058
:10249000AFF809B030BD0120FBE700BF00380240B3
:1024A0002C2401200010004040420F007047FEE73E
:1024B000FEE7FEE7FEE77047024B012204201A8088
:1024C00001F088BBBC110020014803F0BAB800BF7E
:1024D00074230120014803F0B4B800BF2C2401206C
:1024E000014802F0D1B800BFC8220120014801F024
:1024F000B3B900BFB82301200120704708B517F019
:1025000067FD162303604FF0FF3008BD08B517F0D4
:102510005FFD16230360FEE770B50E4614460025E6
:10252000A54201DB204670BDAFF300807055013538
:10253000F6E770B50E4614460025A54201DB20469D
:1025400070BD705DAFF300800135F6E74FF0FF30EE
:1025500070474FF400534B600020704701207047D4
:102560000020704708B50A4B1968024609B90949A5
:1025700019601868694602448A4206D917F028FD96
:102580000C2303604FF0FF3008BD1A60FCE700BF6A
:10259000C4110020C0240120704710B50421044656
:1025A00017F0B6FC204610BD012908B506D0022957
:1025B00008D059B900F024FD006808BD00F020FDE6
:1025C0004068FAE700F01CFD8068F6E70020F4E7B9
:1025D0000048704728B601080220704713B5002450
:1025E00051B1036801948DF8034001AA9C680DF174
:1025F0000303A04702B010BD0846FBE740897047BF
:10260000808970478088704783798088184480B2B9
:102610007047C07900F07F007047C079C0097047EB
:10262000704710B50821044617F072FC204610BD13
:10263000704700F596730868496803C37047704790
:1026400070474160704770470123037270477047BD
:10265000704710B4C26841685410034601EB620031
:10266000D20748BF0A599B685DF8044B48BFD3584E
:10267000184743682BB183682BB9C06800F001008C
:102680007047184670470120704710B50C2104466A
:1026900017F03EFC204610BD10B51021044617F07F
:1026A00037FC204610BD10B54FF4AC71044617F04E
:1026B0002FFC204610BD10B508F008FE0368BDE8E9
:1026C00010401B6B184710B50446D0F83C0158B1B8
:1026D0000368DB68984738B1D4F83C0103689B680D
:1026E00098470023C4F83C3110BD0000F8B50446FB
:1026F00017460E4608F00AFE104B0025C4E9547632
:102700000F4E1C60C4E952550E4B306823600E4BCF
:10271000C4E95035036801219B68C4E94E559847C8
:10272000284600F021FC336893F876200AB1D86C73
:1027300000B9986810F0B5FA2046F8BDC41F012012
:10274000781F0120A0B9010888B90108064BC0F81C
:1027500048310023C0F84C3100F5A073C0F84401A3
:10276000C0F83C31704700BFAD2800082DE9F84F94
:1027700007469068DDF828A0994603681B6A8846DA
:1027800014469847B0F5A27F05D2424B424AA72192
:10279000424817F0EBFB606803681B6A98470F28F4
:1027A00003D83F4B3C4AA821F2E7E06803681B6A64
:1027B00098470B2803D83B4B374AA921E8E708F094
:1027C00085FD08F089FDD9F8000010B10368DB68C9
:1027D0009847D9F8000010B103681B68984738681B
:1027E00010B103685B699847D8F8000010B103681E
:1027F0005B689847386810B103681B689847D8F839
:10280000000010B103689B689847E06803680021E6
:102810005B6A98474FF0000B234B03600546C0F8F6
:1028200004B080F808B0A068036859465B6A98470E
:10283000064600F089FC6068036859465B6A984761
:102840003146044600F038FCC9F80050C8F8004092
:102850003E60E4B1231DCAF800303368C4F808A014
:102860003046DB68F4639847236820461B68984726
:10287000294630460AF049F92B6828461B699847D3
:102880002B6828465B6998472046BDE8F88F2346A9
:10289000E1E700BF60B60108EEB60108F2B7010833
:1028A00039B80108DCB80108E4B9010807B5D0F867
:1028B00054310093D0F85021044B00F59C7104482A
:1028C000FFF754FF03B05DF804FB00BFB81F012001
:1028D000B41F0120006A704770478B8880690A68BE
:1028E000DB0A50F823001044704710B5C2B1137BC7
:1028F000B3B1547BD27A240204F4E0641443C26975
:1029000098B202EB840213888B4202D192F9020042
:1029100010BD05D8013880B204320028F3D1F7E7A2
:102920000020F5E710B52421044617F0F1FA2046FF
:1029300010BD000030B589B00446BDF85050069572
:10294000BDF84C5005959DF8405004959DF83C50BD
:1029500003959DF8385002959DF8345001959DF8E7
:102960003050009509F0CEFC054B2360119BA3610C
:10297000129BE361159B2362204609B030BD00BF66
:1029800008BA01080020704781807047C1807047F5
:1029900001817047418170477047704770477047A9
:1029A000704710B4C4880368121B84881B6D091B10
:1029B00012B25DF8044B09B218474FF6FF738381DA
:1029C0004FF0FF3303621368C361106070477047B4
:1029D000704770477047704790F825201AB190F8FB
:1029E000242002B1186070477047704770477047E5
:1029F00030B4C26844685510034604EB6200D20745
:102A000048BF62599B6830BC48BFD35818474368D9
:102A10002BB183682BB9C06800F0010070471846DD
:102A200070470120704710B51021044617F070FA66
:102A3000204610BD10B54FF4A271044617F068FA95
:102A4000204610BD00F1D8028A4202D10368DB6A39
:102A50001847704770B503680446DB6A1546984707
:102A60002368294620461B6BBDE87040184770B5A7
:102A700004461D46BDF91060FFF7ECFF23682946A8
:102A800020465B6B98472368314620469B6BBDE828
:102A900070401847084901604FF48071002281841A
:102AA000FF21C0E90122C0E90322C0E90522C26179
:102AB00080F82610826270474CC9010873B5018FF7
:102AC0004FF6FF739942064633D01C4B1B682BB957
:102AD0001B4B1C4AB1211C4817F048FA1B4A1288AC
:102AE0008A4203D81A4B174AB221F4E713F811208F
:102AF000184B1B6853F82250174B186800F070FAF7
:102B00002B68019001469B6A284698472B680199DB
:102B10001B6C0446284698472B6801995B6A14FB96
:102B200000F428469847E4B2044486F8454002B0D1
:102B300070BD002380F84530F9E700BFC81F0120B1
:102B400054BA010896BA0108C4BA0108CC1F012082
:102B50000BBB0108D01F0120D41F012013460C4AD3
:102B600070B515682DB90B4B0B4A0C48352117F081
:102B7000FDF995F876200AB1EC6C04B9AC682268CE
:102B8000956A0A46AC4601462046BDE8704060475B
:102B9000781F01205DBB0108A0BB0108FCBB010838
:102BA0002DE9F04F044689B02746002509F032FE92
:102BB000594BE56347F8403B04F16C093846FFF791
:102BC00069FF4846FFF766FF4FF48073A4F8BC30F6
:102BD0004FF6FF73A4F8C4304FF47F0304F1D80616
:102BE000DFF844A1C4F8CC304C4BC4F8B450C4E96D
:102BF0002755C4E92955C4E92B55C4F8C850A4F891
:102C0000D050C4F89830C4F8D450C4F8C0A03046AE
:102C100006F0AEFE424BC4E94D34424B4FF4A07B6C
:102C2000C4E94F352A46F02329463846CDF800B08E
:102C3000FFF71DFF2A4629462846FFF78FFFF0239E
:102C4000A0662A4629464846CDF800B0FFF70FFF98
:102C5000FB22F6212846FFF781FF04F19808C4F80B
:102C600094002F2240462C21FFF7F4FE07228621F4
:102C7000FF20FFF773FF04F59073C4F8D430C4F855
:102C8000C800A4F8CC50A4F82051404606F06FFBD1
:102C900006A94046ADF81C50CDF818A006F084FBFC
:102CA0003046AC222321FFF7D5FE06AA05A9ADF8D0
:102CB000145030460125ADF8185006F0B8FB3046E8
:102CC000A4F81051FFF7FAFEFF2211461046FFF755
:102CD00045FFFF221146C4F814011046FFF73EFFDE
:102CE00004F59A73C4F80031C4F818013946201D60
:102CF000039005F057FA0398494605F053FA0398F4
:102D0000414605F04FFA0398314605F04BFA20464C
:102D100009B0BDE8F08F00BF60BC010848CA0108D7
:102D200048BC0108452A000858B601087047000051
:102D300030B5144D2C78BFF35B8F14F001048BB0C9
:102D40001DD1284617F0E6F8C8B13F2307930E4B74
:102D500006930E4B0E490F4803940122CDE904431C
:102D60000423CDE90132CDE908440A230094FFF79A
:102D7000E1FD284617F0DAF8074817F015F905487D
:102D80000BB030BDC8110020B0EA010890BC0108AA
:102D90005CE90108CC1100202D2D000870470000CF
:102DA00030B5154D2C78BFF35B8F14F001048BB058
:102DB0001ED1284617F0AEF8D0B13F2307930F4B32
:102DC00006930F4B05930123CDE90343029304239C
:102DD000CDE900430B490C4814231622CDE90844E1
:102DE000FFF7A8FD284617F0A1F8084817F0DCF80F
:102DF00005480BB030BD00BFF0110020B4EA010857
:102E000094BC01086CE90108F41100209D2D000814
:102E10007047000030B5144D2C78BFF35B8F14F071
:102E200001048BB01DD1284617F074F8C8B13F23B8
:102E300007930E4B06930E4B0E490F480394012245
:102E4000CDE904430423CDE90132CDE90844282328
:102E50000094FFF76FFD284617F068F8074817F051
:102E6000A3F805480BB030BD18120020C4EA0108D1
:102E700098BC0108A0EA01081C120020112E0008CD
:102E8000002070470EB403B503AB002153F8042BA8
:102E9000019309F06DF802B05DF804EB03B07047E0
:102EA0000CB407B504AB53F8042B019309F060F898
:102EB00003B05DF804EB02B070470000C36B10B5BF
:102EC000044673B3038E2BB9184B194AC021194815
:102ED00017F04CF8C38D00EB43035B8B0BB30AF088
:102EE0006DFB238E012B03D8134B144AC521EEE74B
:102EF000E28D531C9BB2092B194688BFA3F10A012E
:102F000004EB410140F63F10498B814209D10A2B65
:102F100004EB420228BF002304EB4303508B588389
:102F200051832046BDE810400AF02CBA9CBC010831
:102F3000A5BC010850BD01089ABD0108A8BD010843
:102F40000AF0DAB910B586B002AC84E806001A4679
:102F50000AAB05930193099B00932146089B07F058
:102F600044FD06B010BD000038B518BB124B134825
:102F70001B681349B3B11A689C681A4402605A6806
:102F80001A440A601C440F4B00221A8000F038F8E3
:102F9000054600F033F80C4B1C600C4B1D600C4BCD
:102FA000188007E00B4B03600B4B0B600B4B1C684E
:102FB000002CE8D138BD00BF401200204412002090
:102FC000481200204C120020C81F0120D01F0120F1
:102FD000CC1F0120D0EA0108C8EA010804EB01086F
:102FE000044B1B6853F82100034B1B6803EB4000A4
:102FF000704700BF48120020441200200220704792
:10300000004870475012002010B5FFF7C9FE044C6D
:103010002060FFF7FFFE6060FFF78AFEA06010BD32
:1030200050120020704710B54FF4AC71044616F0F2
:103030006FFF204610BD10B50446D0F8540100F0D3
:103040001DF82046BDE8104008F018B810B5044639
:10305000FFF74CFB014B2360204610BD84BE0108E6
:103060000022026070470000034B00681988036863
:1030700001399B6889B21847BC110020024B1B889C
:103080000BB1FFF7F1BF7047BC1100207047043847
:1030900070477047C06803681B6B1847A0F10400B5
:1030A000FFF7F8BF10B51021044616F031FF204697
:1030B00010BDA0F10400F5E710B500228260044ABB
:1030C000C16002F1080424320460426010BD00BFF8
:1030D000C0BE010870477047FFF788BC13B50A22CD
:1030E0000446019100F590700021009009F096F9D6
:1030F000019B064A009814210BF01AF804F198007D
:1031000002B0BDE8104009F03CB800BFF0BE0108B5
:1031100010B5084C01220821204600F055FD64201E
:1031200000F0F6FA20460022BDE81040082100F029
:103130004BBD00BF0018024010B54FF4A271044609
:1031400016F0E6FE204610BD10B50446FFF728FD38
:10315000014B2360204610BDFCBE0108F0207047E3
:103160004FF4A07070472920FEF7AABE2820FEF772
:10317000A7BE08B5FEF778FECA20FEF7A1FEC32061
:10318000FEF782FE0820FEF77FFE5020FEF77CFE51
:10319000CF20FEF795FE0020FEF776FEC120FEF759
:1031A00073FE3020FEF770FEED20FEF789FE6420EE
:1031B000FEF76AFE0320FEF767FE1220FEF764FEAC
:1031C0008120FEF761FEE820FEF77AFE8520FEF7FB
:1031D0005BFE0020FEF758FE7820FEF755FECB2060
:1031E000FEF76EFE3920FEF74FFE2C20FEF74CFE58
:1031F0000020FEF749FE3420FEF746FE0220FEF7CF
:1032000043FEF720FEF75CFE2020FEF73DFEEA209D
:10321000FEF756FE0020FEF737FE0020FEF734FED4
:10322000B120FEF74DFE0020FEF72EFE1B20FEF71C
:103230002BFEB620FEF744FE0A20FEF725FEA22054
:10324000FEF722FEC020FEF73BFE1020FEF71CFE1C
:10325000C120FEF735FE1020FEF716FEC520FEF752
:103260002FFE4520FEF710FE1520FEF70DFEC720AD
:10327000FEF726FE9020FEF707FE3620FEF720FE22
:10328000C820FEF701FEF220FEF71AFE0020FEF72E
:10329000FBFDB020FEF714FEC220FEF7F5FDB620C0
:1032A000FEF70EFE0A20FEF7EFFDA720FEF7ECFD6D
:1032B0002720FEF7E9FD0420FEF7E6FD2A20FEF7B1
:1032C000FFFD0020FEF7E0FD0020FEF7DDFD002001
:1032D000FEF7DAFDEF20FEF7D7FD2B20FEF7F0FD1D
:1032E0000020FEF7D1FD0020FEF7CEFD0120FEF705
:1032F000CBFD3F20FEF7C8FDF620FEF7E1FD0120E3
:10330000FEF7C2FD0020FEF7BFFD0620FEF7BCFD64
:103310002C20FEF7D5FDC820FEF720FE2620FEF764
:10332000CFFD0120FEF7B0FDE020FEF7C9FD0F2024
:10333000FEF7AAFD2920FEF7A7FD2420FEF7A4FD35
:103340000C20FEF7A1FD0E20FEF79EFD0920FEF7E2
:103350009BFD4E20FEF798FD7820FEF795FD3C2062
:10336000FEF792FD0920FEF78FFD1320FEF78CFD7E
:103370000520FEF789FD1720FEF786FD1120FEF7D8
:1033800083FD0020FEF780FDE120FEF799FD00207F
:10339000FEF77AFD1620FEF777FD1B20FEF774FD81
:1033A0000420FEF771FD1120FEF76EFD0720FEF7E9
:1033B0006BFD3120FEF768FD3320FEF765FD4220EE
:1033C000FEF762FD0520FEF75FFD0C20FEF75CFDB9
:1033D0000A20FEF759FD2820FEF756FD2F20FEF7A4
:1033E00053FD0F20FEF750FD1120FEF769FDC820A8
:1033F000FEF7B4FD2920FEF763FDBDE808402C2050
:10340000FEF75EBD08B5FEF72FFD0321D320FEF7C2
:1034100073FD80B208BD10B5C4B20222032120465C
:10342000FEF7D8FC0A20FEF71DFD204600220321EE
:10343000FEF7D0FCBDE810400220FEF713BD38B502
:103440000446E4B2FEF7C4FC00212046FEF7DAFC95
:10345000012105462046FEF7D5FC40EA052080B252
:1034600038BD10B5C4B240212046FEF7CBFC0306A0
:1034700007D54C212046FEF7C5FC003818BF0120B7
:1034800010BD01224B212046FEF7A4FC204600225D
:103490004B21FEF79FFC0020F2E773B50423C4B272
:1034A0000E461546D7210DEB03022046FEF7C4FC5D
:1034B000019B1BBA1A0DC3F30B23328020462B80CD
:1034C00001224B21FEF786FC00224B212046FEF70D
:1034D00081FC02B070BD000010B50A4B1A78904212
:1034E00004460DD0597888420AD00AB141B9012268
:1034F0009C54FEF76DFC2046BDE81040FFF78BBFE3
:1035000010BD00BF5C12002010B5C4B209212046D6
:10351000FEF778FC40F00100C2B209212046BDE868
:103520001040FEF757BC10B5C4B209212046FEF783
:1035300069FC092100F0FE022046BDE81040FEF7BC
:1035400049BC38B5C4B20D4620460A21FEF75AFCE4
:1035500040EA0502D2B220460A21BDE83840FEF713
:1035600039BC07B50190FEF734FC01981F21FFF725
:10357000E8FF019803B05DF804EBFFF7C5BF38B56D
:10358000C4B20D4620460A21FEF73CFC20EA0502A3
:10359000D2B220460A21BDE83840FEF71BBC10B568
:1035A0000446FFF7C0FF20461F21BDE81040FFF78B
:1035B000E6BF10B5C0B20C460B21FEF723FC20403D
:1035C00010BD1F21FFF7F5BF0A46C0B20B21FEF761
:1035D00001BC1F21FFF7F8BF38B5C4B20D46204625
:1035E0001721FEF70FFC20EA0502D2B22046172170
:1035F000BDE83840FEF7EEBB70B5C4B20646042104
:103600002046FEF7FFFB042100F0FB0205462046A2
:10361000FEF7E0FB3046F021FFF7DEFF05F0F80291
:1036200020460421FEF7D6FB492220212046FEF742
:10363000D1FB0220FEF716FC204601222121FEF7D5
:10364000C9FB20469A224121FEF7C4FB20460122F5
:103650004A21FEF7BFFB204601224B21FEF7BAFBB1
:10366000204600224B21FEF7B5FB204601225621C1
:10367000FEF7B0FB204601225821FEF7ABFB2046A7
:1036800001224021FEF7A6FB2046FF220B21FEF778
:10369000A1FBBDE870400220FEF7E4BB054BD3F868
:1036A000882042F47002C3F888204FF000629A60CC
:1036B000704700BF00ED00E008B50B4B1A6842F4FC
:1036C00000721A601A6842F480621A601A6842F442
:1036D00080721A60032000F02FF80020FEF7A8FE89
:1036E000FEF748FC002008BD003C0240034A044BA2
:1036F00011681B780B441360704700BF6C240120D5
:1037000078000020014B1868704700BF6C2401202E
:1037100038B50446FFF7F6FF631C1CBF054B1B784A
:10372000054618BFE418FFF7EDFF431BA342FAD389
:1037300038BD00BF780000200749CA6822F4E06263
:103740000302120403F4E063120C134343F0BF635B
:1037500043F40033CB60704700ED00E0164B30B50A
:10376000DC68C4F30224C4F10705231D042D28BF1F
:103770000425062B4FF0FF338CBF033C002403FAD3
:1037800005F521EA0501A34022EA0302A140002831
:1037900041EA0203ACBF00F16040084A4FEA03135C
:1037A000B8BF00F00F00DBB2AABF00F561401354B0
:1037B00080F8003330BD00BF00ED00E014ED00E004
:1037C000002808DB4209012300F01F0003FA00F083
:1037D000014B43F82200704700E100E010B50446B9
:1037E00050B1437903F0FF0213B90271FEF7E2FB17
:1037F00001236371002010BD0120FCE710B50446D1
:1038000030B390F8393003F0FF021BB980F838204C
:10381000FEF7E8FB22686168022384F839301368F8
:1038200023F440330B431360536BA16823F0070369
:103830000B435363136CE16823F47F5323F03F037E
:103840000B43136400200123E06384F8393010BD7A
:103850000120FCE770477047036870B55E681D681B
:10386000F207044614D5E90512D51A6822F48072CD
:103870001A60C26B42F00102C26301229A60042303
:1038800080F83930002380F83830436903B1984715
:10389000B20616D5AB0414D523681A6822F4005278
:1038A0001A6020229A60E36B43F00203E36304236F
:1038B00084F83930002384F8383063690BB120462E
:1038C0009847300716D5290514D523681A6822F4BD
:1038D00000621A6008229A60E36B43F00403E3631A
:1038E000042384F83930002384F8383063690BB13D
:1038F0002046984772070BD56B0509D523681A68CF
:1039000022F480621A6004229A602046FFF7A2FF28
:10391000B00714D5A90512D523681A6822F40072DD
:103920001A6002229A60E36BE363012384F8393062
:10393000002384F8383023690BB120469847F206FB
:1039400013D5EB0411D523681A6822F480521A604B
:1039500010229A60E36BE363012384F8393000237B
:1039600084F838302046FFF776FF70BDF0B590F848
:103970003830012B4FF002032BD0012280F8393070
:1039800080F8382000EB0113D3E907425D6A184F35
:1039900044EA0242093C012C9CBF05F07F431A43D4
:1039A0004FEA0116036888BF42EA056299B9596A6D
:1039B00039400A435A62012C82699A6103D8426AEB
:1039C00022F07F429A62012380F83930002380F888
:1039D00038301846F0BDD96939400A43DA61821996
:1039E000012C92691A619CBF25F07F451D62EAE7B0
:1039F000F0FFFC002DE9F74FDFF8C4816E4ADFF8D5
:103A0000C49100230D6801249C4004EA0506AC43E0
:103A100040F0B8804C6824F0100C4FEA430E0325A8
:103A20000CF1FF3705FA0EF5012F6FEA050511D8E5
:103A3000876807EA050ACF6807FA0EF747EA0A0718
:103A40008760476827EA060AC4F300179F4047EAE1
:103A50000A074760C76807EA050A8F6807FA0EF782
:103A600047EA0A07BCF1020FC76016D14FEAD30A32
:103A700000EB8A0A03F0070BDAF820704FEA8B0B91
:103A80004FF00F0C0CFA0BFC27EA0C0C0F6907FA2D
:103A90000BF747EA0C07CAF8207007683D4004F0AE
:103AA000030707FA0EFE4EEA05050560E50069D535
:103AB0004FF0000BCDF804B0D8F844703F4D47F4F8
:103AC0008047C8F84470D8F8447007F480470197DD
:103AD000019F23F0030707F1804707F59C3703F0A8
:103AE000030ED7F808A04FEA8E0E4FF00F0C0CFA19
:103AF0000EFCA8422AEA0C0C4BD005F58065A842C2
:103B000049D005F58065A84247D005F58065A842F3
:103B100045D005F58065A84243D0484543D005F51A
:103B20000065A84241D005F58065A8423FD005F563
:103B30008065A8423DD005F58065A8420CBF0925E7
:103B40000A2505FA0EF545EA0C05BD601568F74330
:103B500014F4803F0CBF3D4035431560556814F4A4
:103B6000003F0CBF3D4035435560956814F4801FFD
:103B70000CBF3D4035439560D568A40254BF3D401D
:103B80003543D5600133102B7FF43CAF03B0BDE863
:103B9000F08F5D46D5E70125D3E70225D1E7032560
:103BA000CFE70425CDE70525CBE70625C9E707259F
:103BB000C7E70825C5E700BF003C01400000024000
:103BC00000380240001402400AB1816170470904C4
:103BD000FBE77047044A5169014208B502D05061C1
:103BE000FFF7F7FF08BD00BF003C014001684B69CB
:103BF00013F480634FF0000210D06FF480634B61C8
:103C00002023026380F83D3080F83E20036C80F86A
:103C10003C2043F0040303640120704718467047BA
:103C20002DE9F04104460F46164698462568686916
:103C300027EA000080B2B8B16B695A0516D52B6827
:103C400043F400732B606FF480636B6120220023C8
:103C5000236384F83D2084F83E30226C42F0040255
:103C6000226484F83C300120BDE8F081731CDED072
:103C7000FFF748FDA0EB0800B04201D8002ED5D1D7
:103C800000232022236384F83D2084F83E30226CF8
:103C900042F02002E4E770B504460D46164623685C
:103CA0005B695B0701D5002070BD2046FFF79EFFD2
:103CB000A8B96A1CF3D0FFF725FD801BA84201D8E4
:103CC000002DECD100232022236384F83D2084F8CA
:103CD0003E30226C84F83C3042F020022264012005
:103CE000E2E770B504460D46164621684B6913F0AD
:103CF000400301D0002010E04A69D2060ED56FF0D3
:103D000010024A612022236384F83D2084F83E306B
:103D1000226C226484F83C30012070BDFFF7F2FC75
:103D2000801BA84201D8002DDFD10023202223636D
:103D300084F83D2084F83E30226C42F02002E8E70F
:103D40002DE9F84606460F4691461D464FEA114AB0
:103D50003368BAF1010F0CBF5C699C6927EA04045F
:103D6000A4B2B4FA84F46409A14501D0002017E09C
:103D70006A1CEED0FFF7C6FC089BC01AA84201D807
:103D8000002DE5D100232022336386F83D2086F8FC
:103D90003E30326C86F83C3042F020023264012022
:103DA000BDE8F88670B504460D46164623685B6983
:103DB0001B0601D5002070BD2046FFF717FFA8B9EC
:103DC0006A1CF3D0FFF79EFC801BA84201D8002D8F
:103DD000ECD100232022236384F83D2084F83E3078
:103DE000226C84F83C3042F0200222640120E2E799
:103DF0002DE9F0431546026885B0DDE90C78994657
:103E0000136843F4807313600E463B46CDF8008080
:103E100000224FF001110446FFF792FF236838B1EA
:103E20001B68DB0502D54FF40073236403200AE00E
:103E300006F0FE061E61194943463A462046FFF742
:103E4000EFFE18B1012005B0BDE8F08323680390B0
:103E50005A6903929B690393424639462046039B65
:103E6000FFF7A0FF40B1236C042B01BF2268136849
:103E700043F400731360E5E7B9F1010F236802D141
:103E8000EDB21D61DFE72A0A1A6139464246204633
:103E9000FFF788FF0028E6D12368F1E70200010060
:103EA0002DE9FF479A46036815461A6842F4806276
:103EB0001A601A68DDE90C7842F480721A600E46C6
:103EC0003B46CDF8008000224FF001110446FFF779
:103ED00037FF236848B11B68DB0502D54FF4007338
:103EE0002364032004B0BDE8F0875FFA86F906F08A
:103EF000FE061E612A4943463A462046FFF790FED9
:103F000008B10120EEE7236803905A6903929B6988
:103F10000393424639462046039BFFF743FF40B1D7
:103F2000236C042B01BF2268136843F400731360F1
:103F3000E7E7BAF1010F23681AD1EDB21D614246DD
:103F400039462046FFF72EFF0028E9D12268136882
:103F500043F4807313604FF001110246CDF80080E6
:103F60003B462046FFF7ECFE226860B11368B3E7DA
:103F70002A0A1A61394642462046FFF713FF0028F5
:103F8000CED12368D9E749F00103136104494346C0
:103F90003A462046FFF744FE003818BF0120A1E74B
:103FA0000200010070B5044608B9012070BD90F808
:103FB0003D3003F0FF021BB980F83C20FEF734F8D7
:103FC000242384F83D3023681A6822F001021A6025
:103FD0001A6842F400421A601A6822F400421A6019
:103FE00000F06CFE3F4A6368934294BF3E4A3F4AEA
:103FF00090428CBF00220122002AD6D121683C4E7B
:104000004A68B0FBF6F622F03F0232434A60354A76
:104010000D6A934284BF4FF49672724325F03F05B8
:1040200091BF721C4FF47A76B2FBF6F201322A434A
:104030000A62CD69421E2B4825F44F45834225F084
:10404000FF0532D85B00B2FBF3F340F6FC7201339C
:10405000134242D0C3F30B032B43CB61D4E90730A7
:104060000A68034322F0C00213430B608A68D4E954
:10407000030322F40342034322F0FF0213438B6045
:10408000D4E90530CA68034322F0FF021343CB6032
:104090000B6843F001030B6000202023206484F8A8
:1040A0003D30206384F83E0080E7A06850B903EB00
:1040B0004303B2FBF3F30133C3F30B037BB143F4CC
:1040C0000043C9E719204343B2FBF3F30133C3F3C1
:1040D0000B0323B143F44043BEE70423BCE70123B1
:1040E000BAE700BFA08601007F841E00FF083D00E4
:1040F00040420F002DE9F743044699460C9E0F46B7
:104100009046FFF7FFFA94F83D30202B054603D088
:10411000022003B0BDE8F08300903C49192301223E
:104120002046FFF70DFE0028F2D194F83C30012B19
:10413000EED02068012384F83C300368D9075EBFC5
:10414000036843F001030360036823F40063036022
:10415000212384F83D30402384F83E30002323643B
:104160000A9B6362BDF82C306385638D2385284BE1
:10417000E362CDE900654B46424639462046FFF7EB
:1041800037FE00282AD00120C3E7FFF70BFE40B11D
:10419000236C042B01BF2268136843F4007313607F
:1041A000F1E7636A27681A4612F8011B39616262F7
:1041B000628D218D013A92B262857A69481E80B281
:1041C000520720850AD548B15A783A6102336362B2
:1041D000638D013B02399BB221856385238D2A467D
:1041E00031462046002BD0D1FFF755FD0028CFD116
:1041F0002268136843F400731360202384F83D3071
:1042000084F83C0084F83E0083E700BF0200100001
:104210000000FFFF2DE9F043044687B09946109F48
:104220000D469046FFF76EFA94F83D30202B064677
:1042300004D00225284607B0BDE8F08300907649F7
:10424000192301222046FFF77BFD0028F1D194F8C5
:104250003C30012BEDD02068012384F83C3003680A
:10426000DB075EBF036843F001030360036823F4C8
:1042700000630360222384F83D30402384F83E30FD
:10428000002323640E9B6362BDF83C306385638D1D
:104290002385624BE3622946CDE900764B464246D0
:1042A0002046FFF7FDFD054608B10125C2E7228D36
:1042B0002368B2B902905A6902929A690292029AEC
:1042C0001A6842F400721A60DFF85481238D002BC3
:1042D0002CD1202284F83D2084F83C3084F83E30F4
:1042E000A8E7012A0AD11A6822F480621A600390B2
:1042F0005A6903929A690392039AE1E7022A0ED15E
:104300001A6822F480621A601A6842F400621A6025
:1043100004905A6904929B690493049BD4E7059026
:104320005A6905929B690593059BCDE7032B56D8E7
:10433000012B15D1324639462046FFF7D2FC002822
:10434000B3D123681A69636A1A70636A01336362BE
:10435000238D013B2385638D013B9BB26385B5E7CC
:10436000022B00963B464FF000024146204619D1F1
:10437000FFF7E6FC002898D123681A6842F400721F
:104380001A601A69636A1A70626A531C6362238D29
:10439000013B2385638D013B9BB2638523681B69C9
:1043A0005370D2E7FFF7CCFC00287FF47EAF236880
:1043B0001A6822F480621A601A69636A1A70636A62
:1043C000009601336362238D013B2385638D013B9E
:1043D0009BB2638502463B4641462046C8E73246CB
:1043E00039462046FFF77DFC00287FF45EAF236846
:1043F0001A69636A1A70626A531C6362238D013BF7
:104400002385638D013B9BB2638523685969490706
:104410007FF55CAFC3E700BF020010000000FFFFA4
:104420000400010010B590F83D30202BDCB216D10D
:10443000242380F83D3003681A6822F001021A60D4
:104440005A6A22F010025A625A6A114359621A6873
:1044500042F001021A6080F83D40002010BD0220A9
:10446000FCE730B590F83D30202BDCB216D1026865
:10447000242380F83D30136823F001031360556A4C
:104480004FF6F0732B40194389B25162136843F021
:104490000103136080F83D40002030BD0220FCE79E
:1044A0002DE9F043D20104684F68E568D1F800C0F7
:1044B000D1F818908432A3180CF10106586800F462
:1044C00070405860E068C5F30B45C0F30B403044C2
:1044D0003D4440EA05405860E068CD68C0F30A00FA
:1044E0000544986800F470409860E6688868C6F3F0
:1044F0000A060130304440EA0540986018690E69A8
:1045000020F0070018614FF0000E1E619D6991F8C0
:10451000320091F83180C3F818E091F8305045EA44
:10452000096545EA082545EA00459D61586920F07E
:10453000FF00586148695861D86920F4E06020F0B4
:104540000700D861D1E907500543DD61986A486AE0
:10455000C3F828E098621EB3012E23D0B01E0228B3
:1045600022D9072E0CBF02200120DD6A05F0E025CC
:10457000DD628D6AC96AA7EB0C07454378430330B7
:1045800040EA0540D862186B20F4FF6020F0070075
:1045900018631963A35843F00103A350BDE8F083E7
:1045A0000420E2E70320E0E70220DEE738B5044616
:1045B000002863D090F8A13003F0FF021BB980F807
:1045C000A020FDF78DFD022384F8A13023689A69AD
:1045D00022F070429A61D4E901200243E0689969AF
:1045E0000243206902430A439A619A682449606938
:1045F0000A409A609A6842EA0042A06902439A60BF
:10460000DA68E0690A40DA60DA6842EA0042206A61
:104610000243DA601A69606A0A401A611A6942EA5A
:104620000042A06A02431A615A69114059615A69ED
:10463000E16A42EA0142216B0A435A61D96A94F85D
:10464000360094F8355001F07F41D962D96A94F868
:1046500034200A4342EA052242EA0042DA625A6BF7
:1046600042F006025A639A6942F001029A61002000
:104670000123C4F8A40084F8A13038BD0120FCE770
:1046800000F800F070477047036870B59E6B5D6B73
:104690007207044614D5690712D55A6B22F004023A
:1046A0005A630422DA63D0F8A43043F00103C0F85F
:1046B000A430002380F8A12080F8A030FFF7E2FFAB
:1046C000B20716D5AB0714D523685A6B22F0020245
:1046D0005A630222DA63D4F8A4301343C4F8A43036
:1046E000042384F8A130002384F8A0302046FFF78B
:1046F000C9FFF00710D5E9070ED523685A6B22F0E1
:1047000001025A630122DA63002384F8A12084F8AD
:10471000A0302046FCF7CEFF320711D52B070FD56E
:1047200023685A6B22F008025A630822DA630123D5
:1047300084F8A130002384F8A0302046FFF7A3FFBF
:1047400070BD2DE9F04190F8A030012B06460F46D0
:1047500094464FF002001FD04FF0010886F8A08069
:1047600086F8A10034240D4604FB02640FCD3834D2
:104770000FC40FCD0FC40FCD0FC42B68236030467C
:1047800062463946FFF78CFE33680020C3F8248068
:1047900086F8A18086F8A000BDE8F08190F8A030EE
:1047A000012B4FF0020312D080F8A13003685A6B3E
:1047B00022F001025A63074A11645A6B42F0010267
:1047C0005A63012380F8A130002380F8A0301846F6
:1047D000704700BF006801402DE9F341044640B333
:1047E0000368DD0710D4236898075ED423681A078E
:1047F00000F1A08023685B0700F1BE80A06900285B
:1048000040F01F8100202BE0A64B9A6802F00C02BA
:10481000042A07D09A6802F00C02082A0BD15A68C1
:10482000510208D59F4B1B689A03DCD56368002BA7
:10483000D9D1012014E06268B2F5803F13D11A6823
:1048400042F480321A60FEF75DFF964E05463368EB
:104850009B03C8D4FEF756FF401B6428F7D90320FA
:1048600002B0BDE8F0818F4DB2F5A02F2B6807D1C3
:1048700043F480232B602B6843F480332B60E2E702
:1048800023F480332B602B6823F480232B60002AD1
:10489000D9D1FEF737FF06462B689F03A3D5FEF755
:1048A00031FF801B6428F7D9D9E77E4B9A6812F054
:1048B0000C0F07D09A6802F00C02082A11D15B682D
:1048C0005E020ED4774B1A68950702D5E268012A7A
:1048D000AFD11A68216922F0F80242EAC1021A60D7
:1048E00084E7E268704BB2B101221A60FEF70AFF5A
:1048F0006C4D06462B68980707D52B68226923F074
:10490000F80343EAC2032B6070E7FEF7FBFE801B4F
:104910000228EFD9A3E71A60FEF7F4FE614E0546C0
:10492000336899077FF562AFFEF7ECFE401B022863
:10493000F6D994E762695D4B7AB101221A60FEF7FD
:10494000E1FE584E0546736F9F073FF553AFFEF7E4
:10495000D9FE401B0228F6D981E71A60FEF7D2FE85
:10496000504E0546736F98077FF544AFFEF7CAFEB9
:10497000401B0228F6D972E74A4B1A6C12F080529B
:1049800028D101921A6C42F080521A641B6C03F019
:1049900080530193019B0127454D2B68D9051BD5F9
:1049A000A368404D012B27D12B6F43F001032B67E8
:1049B000FEF7A8FE3B4E054641F28838336F9B0751
:1049C00039D5002F3FF41AAF364A136C23F08053C9
:1049D000136413E70027DFE72B6843F480732B6031
:1049E000FEF790FE06462B68DA05D9D4FEF78AFE5C
:1049F000801B0228F7D932E7052B04D12B6F43F037
:104A000004032B67D0E72A6F22F001022A672A6F7E
:104A100022F004022A67002BCAD1FEF773FE41F28E
:104A2000883806462B6F9807CBD5FEF76BFE801BA8
:104A30004045F7D913E7FEF765FE401B4045BDD959
:104A40000DE7184DAB6803F00C03082B47D0194E47
:104A500000230228336035D1FEF754FE07462B6849
:104A6000990129D4D4E907321343626A43EA8213D5
:104A7000E26A43EA0263A26A5208013A43EA024345
:104A80006B6001233360FEF73DFE064D04462B6844
:104A90009A013FF5B7AEFEF735FE001B0228F6D9A6
:104AA000DDE600BF0038024000004742800E47426A
:104AB0000070004060004742FEF724FEC01B022841
:104AC000CDD9CCE6FEF71EFE04462B689B017FF590
:104AD00099AEFEF717FE001B0228F6D9BFE60128A3
:104AE0003FF4BEAE6B68E26903F4800191427FF44B
:104AF000A0AE216A03F03F028A427FF49AAE616A57
:104B000047F6C0721A408A427FF493AEA16A03F45A
:104B100040328A427FF48DAEE26A03F070639342C2
:104B20003FF470AE85E600BF134908B58B6803F00B
:104B30000C03042B1CD0082B1CD14A684B68496815
:104B400013F4800314BF0D480D48C1F3881118BF3A
:104B5000002302F03F02A1FB0001FBF79FFE064B82
:104B60005B68C3F3014301335B00B0FBF3F008BDA6
:104B70000248FCE70248FAE70038024000127A00D7
:104B80000024F4002DE9F0410D46044610B901203F
:104B9000BDE8F081444B1A6802F00F028A4228D324
:104BA000226897072DD4D00741D43F4B1A6802F0F2
:104BB0000F02AA4266D8226851076CD4130707D5A2
:104BC0003A4A2169936823F4604343EAC10393603E
:104BD000FFF7AAFF354B364A9B68C3F30313D35C38
:104BE000D840344B1860344B1868FDF721FC002086
:104BF000CEE7CAB21A701B6803F00F038B42C6D10E
:104C0000CEE72A4B12F0040F1EBF996841F4E05121
:104C10009960160742BF996841F460419960234941
:104C2000A0688B6823F0F00303438B60BBE76268E6
:104C30001E4B012A1CD11B6813F4003FA7D01B4E4A
:104C4000B36823F003031343B360FEF75BFD41F247
:104C500088380746B368626803F00C03B3EB820F31
:104C6000A3D0FEF74FFDC01B4045F3D903208FE7CB
:104C7000911E01291B6802D813F0007FDEE713F0B4
:104C8000020FDBE7EAB21A701B6803F00F03AB42B6
:104C90007FF47DAF8FE70549E0688B6823F4E0532C
:104CA00003438B608AE700BF003C024000380240AB
:104CB00030BF0108740000207C000020044B054A2E
:104CC0009B68C3F38223D35C034A1068D8407047C3
:104CD0000038024040BF0108740000200F23036029
:104CE0000B4B9A6802F0030242609A6802F0F002ED
:104CF00082609A6802F4E052C2609B68DB0803F4A9
:104D0000E0530361034B1B6803F00F030B60704714
:104D100000380240003C0240036813F0430FF7B52F
:104D2000044640F08A80236813F00C0F44D0894D6C
:104D3000894E00232B60FEF7E5FC074633689B0095
:104D400000F1CC8021684F0715D5D4E90403D6F8CB
:104D500088201B0602F0E04243EA80131343C6F8A2
:104D60008830D6F88C30226A23F4F853013A43EAAB
:104D70000223C6F88C300E0714D5774AA369D2F8FF
:104D8000881020691B0701F0706143EA80130B4310
:104D9000C2F88830D2F88C30616A23F440330B4378
:104DA000C2F88C3001232B60FEF7ACFC6A4E05463E
:104DB0003368980040F1998023689A0633D5002320
:104DC0000193654B654D1A6C42F080521A641B6C5E
:104DD00003F080530193019B2B6843F480732B6095
:104DE000FEF790FC06462B68D90540F185805A4DA8
:104DF0002B6F13F4407340F08680A36A03F4407273
:104E0000B2F5407F544A40F0A080916823F0704092
:104E100021F4F81120F4407001439160116FC3F345
:104E20000B030B431367206810F010001FBF4C4B9F
:104E300094F82C201A6000204EE04A4D464F002383
:104E40002B60FEF75FFC06463B681A013ED42168E2
:104E5000CB0741BFD4E901231B0743EA8213C7F8FC
:104E600084308E0715D53C4AE368D2F88400666822
:104E70001B0600F0E04043EA86130343C2F8843087
:104E8000D2F88C00E36920F01F00013B0343C2F815
:104E90008C3048060AD5E36862681B0643EA821331
:104EA000A26843EA02732C4AC2F8843001232B60C3
:104EB000FEF728FC284E0546336819013FF533AF4D
:104EC000FEF720FC401B0228F6D904E0FEF71AFC8E
:104ED000801B0228B8D9032003B0F0BDFEF712FCF6
:104EE000C01B02287FF62AAFF5E7FEF70BFC401B3C
:104EF00002287FF65DAFEEE7FEF704FC801B022878
:104F00007FF671AFE7E7A26A02F4407293423FF482
:104F100074AF2B6F144A0121116023F440730021F8
:104F200011602B672B6FDA077FF567AFFEF7EAFB9F
:104F300041F2883706462B6F9B073FF55EAFFEF7C1
:104F4000E1FB801BB842F6D9C5E7916821F4F8115E
:104F500063E700BF70004742003802400070004025
:104F6000E011474268004742400E474238B50D46BF
:104F70000446C8B190F82C3003F0FF021BB980F84A
:104F80002D20FDF7E9F9022384F82C30211D20683B
:104F900000F0D2FD62682068294600F003FE01237C
:104FA00084F82C30002038BD0120FCE738B590F89B
:104FB0002C30022B04460D46D8B20DD0022384F8C3
:104FC0002C30206800F02AFE2B68022B0CBF052332
:104FD000012384F82C30002038BD10B590F82C3017
:104FE000022B0446D8B209D0022384F82C30206862
:104FF00000F03BFE012384F82C30002010BDF8B5F2
:1050000004460E4615461F462268936836EA030397
:1050100001D000202DE06B1CF7D0FEF773FBC01B06
:105020008542F1D823685A6822F0E0025A6062682B
:10503000B2F5827F0AD1A268B2F5004F02D0B2F574
:10504000806F03D11A6822F040021A60A26AB2F59A
:10505000005F07D11A6822F400521A601A6842F4FD
:1050600000521A60012384F85130002384F8503034
:105070000320F8BD38B513464268B2F5827F044676
:105080001FD18268B2F5004F02D0B2F5806F07D110
:1050900025682868B2F5806F20F04000286007D0AE
:1050A0000A4680212046FFF7AAFF20B9002038BD1C
:1050B0000A460121F6E7636D43F020036365032090
:1050C000F5E70A460121EEE737B51346124A134DBC
:1050D0001268B2FBF5F54FF47A726A4301924268A6
:1050E000B2F5827F04460BD10A468021FFF787FF85
:1050F00078B1636D43F020036365032003B030BDD6
:10510000019B33B1019B013B019323689B681B0604
:10511000F6D40020F2E700BF7400002000366E01D4
:1051200010B50446002836D00023836290F8513031
:1051300003F0FF021BB980F85020FDF797F82168B3
:10514000A269022384F851300B6823F040030B60FE
:10515000D4E901300343E0680343206903436069F5
:105160000343E0690343206A0343A06A034302F454
:10517000007003430B60120C636A02F004021A43CE
:105180004A60CB6923F40063CB6100200123606592
:1051900084F8513010BD0120FCE72DE9F3411E4693
:1051A00090F85030012B04460D46174600F09780CA
:1051B000012380F85030FEF7A5FA94F85130012B06
:1051C0008046D8B240F08980002D5AD0002F58D0A8
:1051D000032384F85130A268256300236365C4E982
:1051E0001033E786A363E387A3872368A786B2F516
:1051F000004F08BF1A68E16804BF42F480421A6099
:105200001A6852065EBF1A6842F040021A60B1F591
:10521000006F62683ED10AB1012F07D135F8022B29
:10522000DA602563E38E013B9BB2E386E38E9BB29B
:10523000A3B9424631462046FFF746FF002849D130
:10524000A36833B901932368DA6801929B680193DC
:10525000019B606D003818BF012012E0226893683E
:10526000980705D5236B33F8021BD1602363D9E778
:10527000FEF748FAA0EB0800B042D7D3711CD5D096
:105280000320012384F85130002384F8503002B009
:10529000BDE8F0810AB1012F08D12A781A73236B77
:1052A00001332363E38E013B9BB2E386E38E9BB223
:1052B000002BBED023689A68920702D5226B127821
:1052C000ECE7FEF71FFAA0EB0800B042EED3731C28
:1052D000ECD0D5E720236365B2E70220D1E70220B6
:1052E000D5E72DE9F7431E4690F85030DDF82880C9
:1052F000012B04460D46914600F0E080012380F822
:105300005030FEF7FFF994F851306268012B0746E0
:10531000D9B20AD0B2F5827F40F0CE80A368002BCC
:1053200040F0CA80042940F0C780002D3FD0B9F179
:10533000000F3CD0002E3AD094F85130C4F8389089
:10534000042B1CBF052384F8513000236365C4E996
:1053500010332368E687E6861968A687490658BF92
:105360001968256358BF41F04001A68658BF1960EF
:10537000E168B1F5006F51D10AB1012E07D135F8BE
:10538000022BDA60E38E2563013B9BB2E3860125A5
:10539000E38E9BB26BB9E38F9BB253B93A46414659
:1053A0002046FFF791FE00287BD020236365012073
:1053B0002BE021688B689A070DD5E38E9BB253B121
:1053C0004DB1236B33F8022BCA602363E38E013B9C
:1053D0009BB2E38600258A6812F001020CD0E38FAD
:1053E0009BB24BB1A36BC96823F8021BA363E38F85
:1053F000013B9BB2E3871546FEF784F9C01B40458D
:10540000C6D3B8F1FF3FC3D00320012384F8513045
:10541000002384F8503003B0BDE8F0830AB1012EB8
:1054200008D12A781A73236B01332363E38E013B7F
:105430009BB2E3860125E38E9BB21BB9E38F9BB23F
:10544000002BABD0226893689B070ED5E38E9BB2EE
:105450005BB155B1236B1B781373236B013323634B
:10546000E38E013B9BB2E38600252268916811F030
:1054700001010DD0E38F9BB253B1A36BD2681A70B8
:10548000A36B0133A363E38F013B9BB2E3870D461C
:10549000FEF738F9C01B4045CDD3B8F1FF3FCAD065
:1054A000B2E7A368002BB0D123680190DA680192BB
:1054B0009B680193019BA8E70220A6E70220AAE7C8
:1054C0002DE9F3411D464368B3F5827F04468846C3
:1054D00016460CD1836853B9042380F85130134623
:1054E00000950A46FFF7FDFE02B0BDE8F08194F892
:1054F0005030012B79D0012384F85030FEF702F9A7
:1055000094F85130012B0746D8B26CD1B8F1000F96
:1055100057D0002E55D0042384F85130A268A687B6
:1055200000236365C4E91033E6872363E386A3861B
:105530002368C4F83880B2F5004F02BF1A6822F41D
:1055400080421A601A6856065EBF1A6842F040022E
:105550001A60E368F3B1E38F9BB2FBB123689A68EA
:10556000D20735D5DA68A36B23F8022BA363E38F48
:10557000013B9BB2E387EEE723689A68D00718D512
:10558000A26B1B7B1370A36B0133A363E38F013BFF
:105590009BB2E387E38F9BB2002BEDD13A462946BD
:1055A0002046FFF767FDD8B9606D003818BF0120AD
:1055B00007E0FEF7A7F8C01BA842EBD3691CE9D0AF
:1055C0000320012384F85130002384F850308BE706
:1055D000FEF798F8C01BA842BDD36B1CBBD0EFE709
:1055E00020236365E0E70220EBE702207CE77047B9
:1055F0000368DA6842F00102DA609A6802F0070292
:10560000062A1EBF1A6842F001021A600020704785
:10561000082910D004D841B1042909D000207047CE
:105620000C29FBD10368186C70470368586B7047EE
:105630000368986B70470368D86B70477047704772
:10564000704703681A69910710B504460ED5DA68E9
:1056500092070BD56FF002021A61012202779B6953
:105660009B0777D0FCF774F80023237723681A6927
:10567000500710D5DA6851070DD56FF004021A6192
:10568000022222779B6913F4407F204668D0FCF702
:105690005FF80023237723681A6912070FD5DA68A9
:1056A00010070CD56FF008021A6104222277DB691B
:1056B000990720465AD0FCF74BF80023237723683C
:1056C0001A69D20610D5DA68D0060DD56FF010022F
:1056D0001A6108222277DB6913F4407F20464BD001
:1056E000FCF736F80023237723681A69D10708D519
:1056F000DA68D20705D56FF001021A612046FCF77F
:105700002FFC23681A69100608D5DA68110605D53A
:105710006FF080021A61204600F00DFA23681A69C2
:10572000520608D5DA68500605D56FF040021A61B6
:105730002046FFF785FF23681A69910622D5DA68AB
:1057400092061FD56FF0200220461A61BDE8104076
:1057500000F0F0B9FFF772FF2046FFF770FF83E714
:10576000FFF76CFF2046FFF76AFF92E7FFF766FF3F
:105770002046FFF764FFA0E7FFF760FF2046FFF732
:105780005EFFAFE710BD0000304A0368904212D0C0
:10579000B0F1804F0FD0A2F57C4290420BD002F5C1
:1057A0008062904207D002F58062904203D002F5F9
:1057B0007842904219D14A6823F070031343234A78
:1057C000904229D0B0F1804F26D0A2F57C42904281
:1057D00022D002F5806290421ED002F58062904293
:1057E0001AD002F57842904216D0194A904213D04E
:1057F00002F5806290420FD002F5806290420BD099
:10580000A2F59832904207D002F58062904203D010
:1058100002F58062904203D1CA6823F440731343B7
:105820004A6923F08003134303608B68C3620B68EB
:105830008362064B984203D003F58063984201D1FE
:105840000B69036301234361704700BF00000140FF
:105850000040014010B50446A0B190F83D3003F07F
:10586000FF021BB980F83C20FFF7C1FE022320682D
:1058700084F83D30211DFFF787FF012384F83D3078
:10588000002010BD0120FCE710B50446A0B190F83F
:105890003D3003F0FF021BB980F83C20FCF71EFDF1
:1058A0000223206884F83D30211DFFF76DFF01239E
:1058B00084F83D30002010BD0120FCE770B5046A7B
:1058C0001A4E24F001040462B0428469056A29D0AA
:1058D000B0F1804F26D0A6F57C46B04222D006F526
:1058E0008066B0421ED006F58066B0421AD006F53A
:1058F0007846B04216D006F57056B04212D0A6F5E2
:105900009436B0420ED044F001021B01DBB222F00B
:10591000F0021A4301F00A0125F00A0319438261DB
:10592000016270BD24F003042243EEE70000014051
:10593000F8B590F83C30012B04460E4615464FF062
:1059400002001AD0012384F83D0084F83C30D1E9EC
:1059500000122068F3688DB9FFF7B0FF2368B168C3
:105960009A6922F00C029A619A690A439A610123AA
:10597000002084F83D3084F83C00F8BD042DB66862
:1059800022D1056A25F0100505628769D0F820E06C
:1059900027F4407C1D034CEA022C09012CF4704CC6
:1059A000ADB22EF0A00E01F0A00145EA0C0541EACF
:1059B0000E0185610162836923F440638361836919
:1059C00043EA06268661D2E7082D056A1CD125F434
:1059D00080750562C769056A27F0030717431B0135
:1059E0000902DBB227F0F00725F4206501F42061FD
:1059F0001F432943C7610162C36923F00C03C361DC
:105A0000C3691E43C661B2E725F480550562C569C6
:105A1000076A25F4407545EA02251B03090325F4AE
:105A200070459BB227F4204701F420412B433943B2
:105A3000C3610162C36923F44063C361C36943EA7C
:105A40000626DFE7036A01F01F0110B501248C4030
:105A500023EA04030362036A8A401A43026210BD08
:105A6000082910B50446006821D011D8B1B1042925
:105A700019D00122FFF7E6FF23689A6802F00702B7
:105A8000062A1EBF1A6842F001021A60002010BDEB
:105A90000C29EED1C36843F0100302E0C36843F061
:105AA0000203C360E5E7C36843F00403F9E7C36892
:105AB00043F00803F5E7000030B590F83C30012BC7
:105AC0004FF0020332D080F83D3003680D685C6807
:105AD0009A6824F070042C435C60154CA3421AD0E1
